{
  "address": "0x95781Ec2220B6631111a140C5483868d3aA01cFb",
  "abi": [
    {
      "inputs": [
        {
          "internalType": "contract IERC20",
          "name": "_token",
          "type": "address"
        },
        {
          "internalType": "address",
          "name": "_signer",
          "type": "address"
        }
      ],
      "stateMutability": "nonpayable",
      "type": "constructor"
    },
    {
      "anonymous": false,
      "inputs": [
        {
          "indexed": true,
          "internalType": "address",
          "name": "user",
          "type": "address"
        },
        {
          "indexed": false,
          "internalType": "uint256",
          "name": "amount",
          "type": "uint256"
        }
      ],
      "name": "Lock",
      "type": "event"
    },
    {
      "anonymous": false,
      "inputs": [
        {
          "indexed": true,
          "internalType": "address",
          "name": "previousOwner",
          "type": "address"
        },
        {
          "indexed": true,
          "internalType": "address",
          "name": "newOwner",
          "type": "address"
        }
      ],
      "name": "OwnershipTransferred",
      "type": "event"
    },
    {
      "anonymous": false,
      "inputs": [
        {
          "indexed": true,
          "internalType": "address",
          "name": "user",
          "type": "address"
        },
        {
          "indexed": false,
          "internalType": "uint256",
          "name": "amount",
          "type": "uint256"
        },
        {
          "indexed": true,
          "internalType": "string",
          "name": "burnTxnHash",
          "type": "string"
        }
      ],
      "name": "Release",
      "type": "event"
    },
    {
      "anonymous": false,
      "inputs": [
        {
          "indexed": true,
          "internalType": "address",
          "name": "signer",
          "type": "address"
        }
      ],
      "name": "SetSigner",
      "type": "event"
    },
    {
      "inputs": [],
      "name": "approvedSigner",
      "outputs": [
        {
          "internalType": "address",
          "name": "",
          "type": "address"
        }
      ],
      "stateMutability": "view",
      "type": "function"
    },
    {
      "inputs": [
        {
          "internalType": "string",
          "name": "",
          "type": "string"
        }
      ],
      "name": "burnTxnHashes",
      "outputs": [
        {
          "internalType": "bool",
          "name": "",
          "type": "bool"
        }
      ],
      "stateMutability": "view",
      "type": "function"
    },
    {
      "inputs": [],
      "name": "domain",
      "outputs": [
        {
          "internalType": "string",
          "name": "",
          "type": "string"
        }
      ],
      "stateMutability": "view",
      "type": "function"
    },
    {
      "inputs": [
        {
          "internalType": "uint256",
          "name": "amount",
          "type": "uint256"
        }
      ],
      "name": "lockTokens",
      "outputs": [],
      "stateMutability": "nonpayable",
      "type": "function"
    },
    {
      "inputs": [],
      "name": "owner",
      "outputs": [
        {
          "internalType": "address",
          "name": "",
          "type": "address"
        }
      ],
      "stateMutability": "view",
      "type": "function"
    },
    {
      "inputs": [
        {
          "internalType": "address",
          "name": "user",
          "type": "address"
        },
        {
          "internalType": "uint256",
          "name": "amount",
          "type": "uint256"
        },
        {
          "internalType": "string",
          "name": "burnTxnHash",
          "type": "string"
        },
        {
          "internalType": "bytes",
          "name": "signature",
          "type": "bytes"
        }
      ],
      "name": "releaseTokens",
      "outputs": [],
      "stateMutability": "nonpayable",
      "type": "function"
    },
    {
      "inputs": [],
      "name": "renounceOwnership",
      "outputs": [],
      "stateMutability": "nonpayable",
      "type": "function"
    },
    {
      "inputs": [
        {
          "internalType": "address",
          "name": "_signer",
          "type": "address"
        }
      ],
      "name": "setSigner",
      "outputs": [],
      "stateMutability": "nonpayable",
      "type": "function"
    },
    {
      "inputs": [],
      "name": "token",
      "outputs": [
        {
          "internalType": "contract IERC20",
          "name": "",
          "type": "address"
        }
      ],
      "stateMutability": "view",
      "type": "function"
    },
    {
      "inputs": [
        {
          "internalType": "address",
          "name": "newOwner",
          "type": "address"
        }
      ],
      "name": "transferOwnership",
      "outputs": [],
      "stateMutability": "nonpayable",
      "type": "function"
    },
    {
      "inputs": [],
      "name": "version",
      "outputs": [
        {
          "internalType": "string",
          "name": "",
          "type": "string"
        }
      ],
      "stateMutability": "view",
      "type": "function"
    }
  ],
  "transactionHash": "0x7033e4895feb3479b147f42c03af074d31f7242fe928e1704b62f2471bd8bac6",
  "args": [
    "0x0A19344446817Fa1e6E03e87ea8A7AeC1dAB3e96",
    "0x188E2e21503540CfFBD4F8e94B8E338Cd9433A1A"
  ],
  "numDeployments": 1,
  "solcInputHash": "354552fe2ab2cb43af23bbb3a8927d4c",
  "bytecode": "0x60a06040523480156200001157600080fd5b50604051620026813803806200268183398181016040528101906200003791906200032d565b6040518060400160405280600381526020017f42534300000000000000000000000000000000000000000000000000000000008152506040518060400160405280600381526020017f312e300000000000000000000000000000000000000000000000000000000000815250826001600081905550620000cc620000c06200018160201b60201c565b6200018960201b60201c565b8260039080519060200190620000e49291906200024f565b508160049080519060200190620000fd9291906200024f565b5080600260006101000a81548173ffffffffffffffffffffffffffffffffffffffff021916908373ffffffffffffffffffffffffffffffffffffffff1602179055505050508173ffffffffffffffffffffffffffffffffffffffff1660808173ffffffffffffffffffffffffffffffffffffffff1660601b8152505050506200044f565b600033905090565b6000600160009054906101000a900473ffffffffffffffffffffffffffffffffffffffff16905081600160006101000a81548173ffffffffffffffffffffffffffffffffffffffff021916908373ffffffffffffffffffffffffffffffffffffffff1602179055508173ffffffffffffffffffffffffffffffffffffffff168173ffffffffffffffffffffffffffffffffffffffff167f8be0079c531659141344cd1fd0a4f28419497f9722a3daafe3b4186f6b6457e060405160405180910390a35050565b8280546200025d90620003b6565b90600052602060002090601f016020900481019282620002815760008555620002cd565b82601f106200029c57805160ff1916838001178555620002cd565b82800160010185558215620002cd579182015b82811115620002cc578251825591602001919060010190620002af565b5b509050620002dc9190620002e0565b5090565b5b80821115620002fb576000816000905550600101620002e1565b5090565b60008151905062000310816200041b565b92915050565b600081519050620003278162000435565b92915050565b600080604083850312156200034157600080fd5b6000620003518582860162000316565b92505060206200036485828601620002ff565b9150509250929050565b60006200037b8262000396565b9050919050565b60006200038f826200036e565b9050919050565b600073ffffffffffffffffffffffffffffffffffffffff82169050919050565b60006002820490506001821680620003cf57607f821691505b60208210811415620003e657620003e5620003ec565b5b50919050565b7f4e487b7100000000000000000000000000000000000000000000000000000000600052602260045260246000fd5b62000426816200036e565b81146200043257600080fd5b50565b620004408162000382565b81146200044c57600080fd5b50565b60805160601c6122056200047c600039600081816105aa015281816107be0152610abc01526122056000f3fe608060405234801561001057600080fd5b50600436106100a95760003560e01c8063715018a611610071578063715018a6146101505780638da5cb5b1461015a578063c2fb26a614610178578063d082fe1714610196578063f2fde38b146101b4578063fc0c546a146101d0576100a9565b80633b3d8297146100ae57806354fd4d50146100de5780635ba3c270146100fc5780636c19e783146101185780636e27d88914610134575b600080fd5b6100c860048036038101906100c391906115ba565b6101ee565b6040516100d59190611a4e565b60405180910390f35b6100e6610224565b6040516100f39190611af9565b60405180910390f35b610116600480360381019061011191906114d5565b6102b2565b005b610132600480360381019061012d91906114ac565b610665565b005b61014e600480360381019061014991906115fb565b610768565b005b61015861085c565b005b6101626108e4565b60405161016f91906119d3565b60405180910390f35b61018061090e565b60405161018d9190611af9565b60405180910390f35b61019e61099c565b6040516101ab91906119d3565b60405180910390f35b6101ce60048036038101906101c991906114ac565b6109c2565b005b6101d8610aba565b6040516101e59190611ade565b60405180910390f35b6005818051602081018201805184825260208301602085012081835280955050505050506000915054906101000a900460ff1681565b6004805461023190611e85565b80601f016020809104026020016040519081016040528092919081815260200182805461025d90611e85565b80156102aa5780601f1061027f576101008083540402835291602001916102aa565b820191906000526020600020905b81548152906001019060200180831161028d57829003601f168201915b505050505081565b600260005414156102f8576040517f08c379a00000000000000000000000000000000000000000000000000000000081526004016102ef90611bfb565b60405180910390fd5b60026000819055508383838360006040518060a001604052808673ffffffffffffffffffffffffffffffffffffffff1681526020018581526020018481526020016003805461034690611e85565b80601f016020809104026020016040519081016040528092919081815260200182805461037290611e85565b80156103bf5780601f10610394576101008083540402835291602001916103bf565b820191906000526020600020905b8154815290600101906020018083116103a257829003601f168201915b50505050508152602001600480546103d690611e85565b80601f016020809104026020016040519081016040528092919081815260200182805461040290611e85565b801561044f5780601f106104245761010080835404028352916020019161044f565b820191906000526020600020905b81548152906001019060200180831161043257829003601f168201915b50505050508152506040516020016104679190611c1b565b604051602081830303815290604052805190602001209050600115156104b8600260009054906101000a900473ffffffffffffffffffffffffffffffffffffffff166104b284610ade565b85610b0e565b1515146104fa576040517f08c379a00000000000000000000000000000000000000000000000000000000081526004016104f190611b5b565b60405180910390fd5b6000151560058860405161050e9190611996565b908152602001604051809103902060009054906101000a900460ff1615151461056c576040517f08c379a000000000000000000000000000000000000000000000000000000000815260040161056390611b1b565b60405180910390fd5b600160058860405161057e9190611996565b908152602001604051809103902060006101000a81548160ff0219169083151502179055506105ee89897f000000000000000000000000000000000000000000000000000000000000000073ffffffffffffffffffffffffffffffffffffffff16610d3f9092919063ffffffff16565b866040516105fc9190611996565b60405180910390208973ffffffffffffffffffffffffffffffffffffffff167fc1bbd3f894b00b67a83ffe6a4f03d5b4a6385cf720e99eede61ff86788e42c1d8a60405161064a9190611c3d565b60405180910390a35050505050600160008190555050505050565b61066d610dc5565b73ffffffffffffffffffffffffffffffffffffffff1661068b6108e4565b73ffffffffffffffffffffffffffffffffffffffff16146106e1576040517f08c379a00000000000000000000000000000000000000000000000000000000081526004016106d890611b9b565b60405180910390fd5b80600260006101000a81548173ffffffffffffffffffffffffffffffffffffffff021916908373ffffffffffffffffffffffffffffffffffffffff1602179055508073ffffffffffffffffffffffffffffffffffffffff167fbb10aee7ef5a307b8097c6a7f2892b909ff1736fd24a6a5260640c185f7153b660405160405180910390a250565b600260005414156107ae576040517f08c379a00000000000000000000000000000000000000000000000000000000081526004016107a590611bfb565b60405180910390fd5b60026000819055506108033330837f000000000000000000000000000000000000000000000000000000000000000073ffffffffffffffffffffffffffffffffffffffff16610dcd909392919063ffffffff16565b3373ffffffffffffffffffffffffffffffffffffffff167f625fed9875dada8643f2418b838ae0bc78d9a148a18eee4ee1979ff0f3f5d427826040516108499190611c3d565b60405180910390a2600160008190555050565b610864610dc5565b73ffffffffffffffffffffffffffffffffffffffff166108826108e4565b73ffffffffffffffffffffffffffffffffffffffff16146108d8576040517f08c379a00000000000000000000000000000000000000000000000000000000081526004016108cf90611b9b565b60405180910390fd5b6108e26000610e56565b565b6000600160009054906101000a900473ffffffffffffffffffffffffffffffffffffffff16905090565b6003805461091b90611e85565b80601f016020809104026020016040519081016040528092919081815260200182805461094790611e85565b80156109945780601f1061096957610100808354040283529160200191610994565b820191906000526020600020905b81548152906001019060200180831161097757829003601f168201915b505050505081565b600260009054906101000a900473ffffffffffffffffffffffffffffffffffffffff1681565b6109ca610dc5565b73ffffffffffffffffffffffffffffffffffffffff166109e86108e4565b73ffffffffffffffffffffffffffffffffffffffff1614610a3e576040517f08c379a0000000000000000000000000000000000000000000000000000000008152600401610a3590611b9b565b60405180910390fd5b600073ffffffffffffffffffffffffffffffffffffffff168173ffffffffffffffffffffffffffffffffffffffff161415610aae576040517f08c379a0000000000000000000000000000000000000000000000000000000008152600401610aa590611b3b565b60405180910390fd5b610ab781610e56565b50565b7f000000000000000000000000000000000000000000000000000000000000000081565b600081604051602001610af191906119ad565b604051602081830303815290604052805190602001209050919050565b6000806000610b1d8585610f1c565b9150915060006004811115610b5b577f4e487b7100000000000000000000000000000000000000000000000000000000600052602160045260246000fd5b816004811115610b94577f4e487b7100000000000000000000000000000000000000000000000000000000600052602160045260246000fd5b148015610bcc57508573ffffffffffffffffffffffffffffffffffffffff168273ffffffffffffffffffffffffffffffffffffffff16145b15610bdc57600192505050610d38565b6000808773ffffffffffffffffffffffffffffffffffffffff16631626ba7e60e01b8888604051602401610c11929190611a69565b604051602081830303815290604052907bffffffffffffffffffffffffffffffffffffffffffffffffffffffff19166020820180517bffffffffffffffffffffffffffffffffffffffffffffffffffffffff8381831617835250505050604051610c7b919061197f565b600060405180830381855afa9150503d8060008114610cb6576040519150601f19603f3d011682016040523d82523d6000602084013e610cbb565b606091505b5091509150818015610cce575060208151145b8015610d315750631626ba7e60e01b7bffffffffffffffffffffffffffffffffffffffffffffffffffffffff191681806020019051810190610d109190611591565b7bffffffffffffffffffffffffffffffffffffffffffffffffffffffff1916145b9450505050505b9392505050565b610dc08363a9059cbb60e01b8484604051602401610d5e929190611a25565b604051602081830303815290604052907bffffffffffffffffffffffffffffffffffffffffffffffffffffffff19166020820180517bffffffffffffffffffffffffffffffffffffffffffffffffffffffff8381831617835250505050610f9f565b505050565b600033905090565b610e50846323b872dd60e01b858585604051602401610dee939291906119ee565b604051602081830303815290604052907bffffffffffffffffffffffffffffffffffffffffffffffffffffffff19166020820180517bffffffffffffffffffffffffffffffffffffffffffffffffffffffff8381831617835250505050610f9f565b50505050565b6000600160009054906101000a900473ffffffffffffffffffffffffffffffffffffffff16905081600160006101000a81548173ffffffffffffffffffffffffffffffffffffffff021916908373ffffffffffffffffffffffffffffffffffffffff1602179055508173ffffffffffffffffffffffffffffffffffffffff168173ffffffffffffffffffffffffffffffffffffffff167f8be0079c531659141344cd1fd0a4f28419497f9722a3daafe3b4186f6b6457e060405160405180910390a35050565b600080604183511415610f5e5760008060006020860151925060408601519150606086015160001a9050610f5287828585611066565b94509450505050610f98565b604083511415610f8f576000806020850151915060408501519050610f84868383611173565b935093505050610f98565b60006002915091505b9250929050565b6000611001826040518060400160405280602081526020017f5361666545524332303a206c6f772d6c6576656c2063616c6c206661696c65648152508573ffffffffffffffffffffffffffffffffffffffff166111d29092919063ffffffff16565b905060008151111561106157808060200190518101906110219190611568565b611060576040517f08c379a000000000000000000000000000000000000000000000000000000000815260040161105790611bdb565b60405180910390fd5b5b505050565b6000807f7fffffffffffffffffffffffffffffff5d576e7357a4501ddfe92f46681b20a08360001c11156110a157600060039150915061116a565b601b8560ff16141580156110b95750601c8560ff1614155b156110cb57600060049150915061116a565b6000600187878787604051600081526020016040526040516110f09493929190611a99565b6020604051602081039080840390855afa158015611112573d6000803e3d6000fd5b505050602060405103519050600073ffffffffffffffffffffffffffffffffffffffff168173ffffffffffffffffffffffffffffffffffffffff1614156111615760006001925092505061116a565b80600092509250505b94509492505050565b60008060007f7fffffffffffffffffffffffffffffffffffffffffffffffffffffffffffffff60001b841690506000601b60ff8660001c901c6111b69190611d3e565b90506111c487828885611066565b935093505050935093915050565b60606111e184846000856111ea565b90509392505050565b60608247101561122f576040517f08c379a000000000000000000000000000000000000000000000000000000000815260040161122690611b7b565b60405180910390fd5b611238856112fe565b611277576040517f08c379a000000000000000000000000000000000000000000000000000000000815260040161126e90611bbb565b60405180910390fd5b6000808673ffffffffffffffffffffffffffffffffffffffff1685876040516112a0919061197f565b60006040518083038185875af1925050503d80600081146112dd576040519150601f19603f3d011682016040523d82523d6000602084013e6112e2565b606091505b50915091506112f2828286611321565b92505050949350505050565b6000808273ffffffffffffffffffffffffffffffffffffffff163b119050919050565b6060831561133157829050611381565b6000835111156113445782518084602001fd5b816040517f08c379a00000000000000000000000000000000000000000000000000000000081526004016113789190611af9565b60405180910390fd5b9392505050565b600061139b61139684611c7d565b611c58565b9050828152602081018484840111156113b357600080fd5b6113be848285611e43565b509392505050565b60006113d96113d484611cae565b611c58565b9050828152602081018484840111156113f157600080fd5b6113fc848285611e43565b509392505050565b60008135905061141381612173565b92915050565b6000815190506114288161218a565b92915050565b60008151905061143d816121a1565b92915050565b600082601f83011261145457600080fd5b8135611464848260208601611388565b91505092915050565b600082601f83011261147e57600080fd5b813561148e8482602086016113c6565b91505092915050565b6000813590506114a6816121b8565b92915050565b6000602082840312156114be57600080fd5b60006114cc84828501611404565b91505092915050565b600080600080608085870312156114eb57600080fd5b60006114f987828801611404565b945050602061150a87828801611497565b935050604085013567ffffffffffffffff81111561152757600080fd5b6115338782880161146d565b925050606085013567ffffffffffffffff81111561155057600080fd5b61155c87828801611443565b91505092959194509250565b60006020828403121561157a57600080fd5b600061158884828501611419565b91505092915050565b6000602082840312156115a357600080fd5b60006115b18482850161142e565b91505092915050565b6000602082840312156115cc57600080fd5b600082013567ffffffffffffffff8111156115e657600080fd5b6115f28482850161146d565b91505092915050565b60006020828403121561160d57600080fd5b600061161b84828501611497565b91505092915050565b61162d81611d94565b82525050565b61163c81611d94565b82525050565b61164b81611da6565b82525050565b61165a81611db2565b82525050565b61167161166c82611db2565b611ee8565b82525050565b600061168282611cdf565b61168c8185611cf5565b935061169c818560208601611e52565b6116a581611f7f565b840191505092915050565b60006116bb82611cdf565b6116c58185611d06565b93506116d5818560208601611e52565b80840191505092915050565b6116ea81611e1f565b82525050565b60006116fb82611cea565b6117058185611d11565b9350611715818560208601611e52565b61171e81611f7f565b840191505092915050565b600061173482611cea565b61173e8185611d22565b935061174e818560208601611e52565b61175781611f7f565b840191505092915050565b600061176d82611cea565b6117778185611d33565b9350611787818560208601611e52565b80840191505092915050565b60006117a0601c83611d33565b91506117ab82611f90565b601c82019050919050565b60006117c3601c83611d22565b91506117ce82611fb9565b602082019050919050565b60006117e6602683611d22565b91506117f182611fe2565b604082019050919050565b6000611809601183611d22565b915061181482612031565b602082019050919050565b600061182c602683611d22565b91506118378261205a565b604082019050919050565b600061184f602083611d22565b915061185a826120a9565b602082019050919050565b6000611872601d83611d22565b915061187d826120d2565b602082019050919050565b6000611895602a83611d22565b91506118a0826120fb565b604082019050919050565b60006118b8601f83611d22565b91506118c38261214a565b602082019050919050565b600060a0830160008301516118e66000860182611624565b5060208301516118f96020860182611952565b506040830151848203604086015261191182826116f0565b9150506060830151848203606086015261192b82826116f0565b9150506080830151848203608086015261194582826116f0565b9150508091505092915050565b61195b81611e08565b82525050565b61196a81611e08565b82525050565b61197981611e12565b82525050565b600061198b82846116b0565b915081905092915050565b60006119a28284611762565b915081905092915050565b60006119b882611793565b91506119c48284611660565b60208201915081905092915050565b60006020820190506119e86000830184611633565b92915050565b6000606082019050611a036000830186611633565b611a106020830185611633565b611a1d6040830184611961565b949350505050565b6000604082019050611a3a6000830185611633565b611a476020830184611961565b9392505050565b6000602082019050611a636000830184611642565b92915050565b6000604082019050611a7e6000830185611651565b8181036020830152611a908184611677565b90509392505050565b6000608082019050611aae6000830187611651565b611abb6020830186611970565b611ac86040830185611651565b611ad56060830184611651565b95945050505050565b6000602082019050611af360008301846116e1565b92915050565b60006020820190508181036000830152611b138184611729565b905092915050565b60006020820190508181036000830152611b34816117b6565b9050919050565b60006020820190508181036000830152611b54816117d9565b9050919050565b60006020820190508181036000830152611b74816117fc565b9050919050565b60006020820190508181036000830152611b948161181f565b9050919050565b60006020820190508181036000830152611bb481611842565b9050919050565b60006020820190508181036000830152611bd481611865565b9050919050565b60006020820190508181036000830152611bf481611888565b9050919050565b60006020820190508181036000830152611c14816118ab565b9050919050565b60006020820190508181036000830152611c3581846118ce565b905092915050565b6000602082019050611c526000830184611961565b92915050565b6000611c62611c73565b9050611c6e8282611eb7565b919050565b6000604051905090565b600067ffffffffffffffff821115611c9857611c97611f50565b5b611ca182611f7f565b9050602081019050919050565b600067ffffffffffffffff821115611cc957611cc8611f50565b5b611cd282611f7f565b9050602081019050919050565b600081519050919050565b600081519050919050565b600082825260208201905092915050565b600081905092915050565b600082825260208201905092915050565b600082825260208201905092915050565b600081905092915050565b6000611d4982611e08565b9150611d5483611e08565b9250827fffffffffffffffffffffffffffffffffffffffffffffffffffffffffffffffff03821115611d8957611d88611ef2565b5b828201905092915050565b6000611d9f82611de8565b9050919050565b60008115159050919050565b6000819050919050565b60007fffffffff0000000000000000000000000000000000000000000000000000000082169050919050565b600073ffffffffffffffffffffffffffffffffffffffff82169050919050565b6000819050919050565b600060ff82169050919050565b6000611e2a82611e31565b9050919050565b6000611e3c82611de8565b9050919050565b82818337600083830152505050565b60005b83811015611e70578082015181840152602081019050611e55565b83811115611e7f576000848401525b50505050565b60006002820490506001821680611e9d57607f821691505b60208210811415611eb157611eb0611f21565b5b50919050565b611ec082611f7f565b810181811067ffffffffffffffff82111715611edf57611ede611f50565b5b80604052505050565b6000819050919050565b7f4e487b7100000000000000000000000000000000000000000000000000000000600052601160045260246000fd5b7f4e487b7100000000000000000000000000000000000000000000000000000000600052602260045260246000fd5b7f4e487b7100000000000000000000000000000000000000000000000000000000600052604160045260246000fd5b6000601f19601f8301169050919050565b7f19457468657265756d205369676e6564204d6573736167653a0a333200000000600082015250565b7f4275726e2074786e20686173682c20616c726561647920657869737400000000600082015250565b7f4f776e61626c653a206e6577206f776e657220697320746865207a65726f206160008201527f6464726573730000000000000000000000000000000000000000000000000000602082015250565b7f496e76616c6964207369676e6174757265000000000000000000000000000000600082015250565b7f416464726573733a20696e73756666696369656e742062616c616e636520666f60008201527f722063616c6c0000000000000000000000000000000000000000000000000000602082015250565b7f4f776e61626c653a2063616c6c6572206973206e6f7420746865206f776e6572600082015250565b7f416464726573733a2063616c6c20746f206e6f6e2d636f6e7472616374000000600082015250565b7f5361666545524332303a204552433230206f7065726174696f6e20646964206e60008201527f6f74207375636365656400000000000000000000000000000000000000000000602082015250565b7f5265656e7472616e637947756172643a207265656e7472616e742063616c6c00600082015250565b61217c81611d94565b811461218757600080fd5b50565b61219381611da6565b811461219e57600080fd5b50565b6121aa81611dbc565b81146121b557600080fd5b50565b6121c181611e08565b81146121cc57600080fd5b5056fea26469706673582212206d63bc1e13793d8d75b4078a347cf50ae18574a9c2510bd08043fcf55e5ce07864736f6c63430008020033",
  "devdoc": {
    "kind": "dev",
    "methods": {
      "owner()": {
        "details": "Returns the address of the current owner."
      },
      "renounceOwnership()": {
        "details": "Leaves the contract without owner. It will not be possible to call `onlyOwner` functions anymore. Can only be called by the current owner. NOTE: Renouncing ownership will leave the contract without an owner, thereby removing any functionality that is only available to the owner."
      },
      "transferOwnership(address)": {
        "details": "Transfers ownership of the contract to a new account (`newOwner`). Can only be called by the current owner."
      }
    },
    "version": 1
  },
  "userdoc": {
    "kind": "user",
    "methods": {},
    "version": 1
  },
  "storageLayout": {
    "storage": [
      {
        "astId": 221,
        "contract": "contracts/bridge/BSCLock.sol:BSCLock",
        "label": "_status",
        "offset": 0,
        "slot": "0",
        "type": "t_uint256"
      },
      {
        "astId": 7,
        "contract": "contracts/bridge/BSCLock.sol:BSCLock",
        "label": "_owner",
        "offset": 0,
        "slot": "1",
        "type": "t_address"
      },
      {
        "astId": 2410,
        "contract": "contracts/bridge/BSCLock.sol:BSCLock",
        "label": "approvedSigner",
        "offset": 0,
        "slot": "2",
        "type": "t_address"
      },
      {
        "astId": 2412,
        "contract": "contracts/bridge/BSCLock.sol:BSCLock",
        "label": "domain",
        "offset": 0,
        "slot": "3",
        "type": "t_string_storage"
      },
      {
        "astId": 2414,
        "contract": "contracts/bridge/BSCLock.sol:BSCLock",
        "label": "version",
        "offset": 0,
        "slot": "4",
        "type": "t_string_storage"
      },
      {
        "astId": 2210,
        "contract": "contracts/bridge/BSCLock.sol:BSCLock",
        "label": "burnTxnHashes",
        "offset": 0,
        "slot": "5",
        "type": "t_mapping(t_string_memory_ptr,t_bool)"
      }
    ],
    "types": {
      "t_address": {
        "encoding": "inplace",
        "label": "address",
        "numberOfBytes": "20"
      },
      "t_bool": {
        "encoding": "inplace",
        "label": "bool",
        "numberOfBytes": "1"
      },
      "t_mapping(t_string_memory_ptr,t_bool)": {
        "encoding": "mapping",
        "key": "t_string_memory_ptr",
        "label": "mapping(string => bool)",
        "numberOfBytes": "32",
        "value": "t_bool"
      },
      "t_string_memory_ptr": {
        "encoding": "bytes",
        "label": "string",
        "numberOfBytes": "32"
      },
      "t_string_storage": {
        "encoding": "bytes",
        "label": "string",
        "numberOfBytes": "32"
      },
      "t_uint256": {
        "encoding": "inplace",
        "label": "uint256",
        "numberOfBytes": "32"
      }
    }
  }
}