{
  "address": "0x1B0ffde4d34A5BC71C0946e3Ba21BecB6072a5C5",
  "abi": [
    {
      "inputs": [
        {
          "internalType": "contract IPolygonToken",
          "name": "_token",
          "type": "address"
        },
        {
          "internalType": "address",
          "name": "_signer",
          "type": "address"
        }
      ],
      "stateMutability": "nonpayable",
      "type": "constructor"
    },
    {
      "anonymous": false,
      "inputs": [
        {
          "indexed": false,
          "internalType": "address",
          "name": "user",
          "type": "address"
        },
        {
          "indexed": false,
          "internalType": "uint256",
          "name": "amount",
          "type": "uint256"
        },
        {
          "indexed": true,
          "internalType": "string",
          "name": "lockTxnHash",
          "type": "string"
        }
      ],
      "name": "Deposit",
      "type": "event"
    },
    {
      "anonymous": false,
      "inputs": [
        {
          "indexed": true,
          "internalType": "address",
          "name": "previousOwner",
          "type": "address"
        },
        {
          "indexed": true,
          "internalType": "address",
          "name": "newOwner",
          "type": "address"
        }
      ],
      "name": "OwnershipTransferred",
      "type": "event"
    },
    {
      "anonymous": false,
      "inputs": [
        {
          "indexed": true,
          "internalType": "address",
          "name": "signer",
          "type": "address"
        }
      ],
      "name": "SetSigner",
      "type": "event"
    },
    {
      "inputs": [],
      "name": "approvedSigner",
      "outputs": [
        {
          "internalType": "address",
          "name": "",
          "type": "address"
        }
      ],
      "stateMutability": "view",
      "type": "function"
    },
    {
      "inputs": [
        {
          "internalType": "address",
          "name": "user",
          "type": "address"
        },
        {
          "internalType": "uint256",
          "name": "amount",
          "type": "uint256"
        },
        {
          "internalType": "string",
          "name": "lockTxnHash",
          "type": "string"
        },
        {
          "internalType": "bytes",
          "name": "signature",
          "type": "bytes"
        }
      ],
      "name": "depositTokens",
      "outputs": [],
      "stateMutability": "nonpayable",
      "type": "function"
    },
    {
      "inputs": [],
      "name": "domain",
      "outputs": [
        {
          "internalType": "string",
          "name": "",
          "type": "string"
        }
      ],
      "stateMutability": "view",
      "type": "function"
    },
    {
      "inputs": [
        {
          "internalType": "string",
          "name": "",
          "type": "string"
        }
      ],
      "name": "lockTxnHashes",
      "outputs": [
        {
          "internalType": "bool",
          "name": "",
          "type": "bool"
        }
      ],
      "stateMutability": "view",
      "type": "function"
    },
    {
      "inputs": [],
      "name": "owner",
      "outputs": [
        {
          "internalType": "address",
          "name": "",
          "type": "address"
        }
      ],
      "stateMutability": "view",
      "type": "function"
    },
    {
      "inputs": [],
      "name": "renounceOwnership",
      "outputs": [],
      "stateMutability": "nonpayable",
      "type": "function"
    },
    {
      "inputs": [
        {
          "internalType": "address",
          "name": "_signer",
          "type": "address"
        }
      ],
      "name": "setSigner",
      "outputs": [],
      "stateMutability": "nonpayable",
      "type": "function"
    },
    {
      "inputs": [],
      "name": "token",
      "outputs": [
        {
          "internalType": "contract IPolygonToken",
          "name": "",
          "type": "address"
        }
      ],
      "stateMutability": "view",
      "type": "function"
    },
    {
      "inputs": [
        {
          "internalType": "address",
          "name": "newOwner",
          "type": "address"
        }
      ],
      "name": "transferOwnership",
      "outputs": [],
      "stateMutability": "nonpayable",
      "type": "function"
    },
    {
      "inputs": [],
      "name": "version",
      "outputs": [
        {
          "internalType": "string",
          "name": "",
          "type": "string"
        }
      ],
      "stateMutability": "view",
      "type": "function"
    }
  ],
  "transactionHash": "0x30543cf2846a43da2d0871bde912694c6364c4c4c66c971333124d967604f9e1",
  "args": [
    "0x8CFAB8C829f3d54cDC00265b3dDB35556A98aa97",
    "0x188E2e21503540CfFBD4F8e94B8E338Cd9433A1A"
  ],
  "numDeployments": 1,
  "solcInputHash": "354552fe2ab2cb43af23bbb3a8927d4c",
  "bytecode": "0x60a06040523480156200001157600080fd5b50604051620020313803806200203183398181016040528101906200003791906200032d565b6040518060400160405280600481526020017f506f6c79000000000000000000000000000000000000000000000000000000008152506040518060400160405280600381526020017f312e300000000000000000000000000000000000000000000000000000000000815250826001600081905550620000cc620000c06200018160201b60201c565b6200018960201b60201c565b8260039080519060200190620000e49291906200024f565b508160049080519060200190620000fd9291906200024f565b5080600260006101000a81548173ffffffffffffffffffffffffffffffffffffffff021916908373ffffffffffffffffffffffffffffffffffffffff1602179055505050508173ffffffffffffffffffffffffffffffffffffffff1660808173ffffffffffffffffffffffffffffffffffffffff1660601b8152505050506200044f565b600033905090565b6000600160009054906101000a900473ffffffffffffffffffffffffffffffffffffffff16905081600160006101000a81548173ffffffffffffffffffffffffffffffffffffffff021916908373ffffffffffffffffffffffffffffffffffffffff1602179055508173ffffffffffffffffffffffffffffffffffffffff168173ffffffffffffffffffffffffffffffffffffffff167f8be0079c531659141344cd1fd0a4f28419497f9722a3daafe3b4186f6b6457e060405160405180910390a35050565b8280546200025d90620003b6565b90600052602060002090601f016020900481019282620002815760008555620002cd565b82601f106200029c57805160ff1916838001178555620002cd565b82800160010185558215620002cd579182015b82811115620002cc578251825591602001919060010190620002af565b5b509050620002dc9190620002e0565b5090565b5b80821115620002fb576000816000905550600101620002e1565b5090565b60008151905062000310816200041b565b92915050565b600081519050620003278162000435565b92915050565b600080604083850312156200034157600080fd5b6000620003518582860162000316565b92505060206200036485828601620002ff565b9150509250929050565b60006200037b8262000396565b9050919050565b60006200038f826200036e565b9050919050565b600073ffffffffffffffffffffffffffffffffffffffff82169050919050565b60006002820490506001821680620003cf57607f821691505b60208210811415620003e657620003e5620003ec565b5b50919050565b7f4e487b7100000000000000000000000000000000000000000000000000000000600052602260045260246000fd5b62000426816200036e565b81146200043257600080fd5b50565b620004408162000382565b81146200044c57600080fd5b50565b60805160601c611bbc620004756000396000818161080b01526109f30152611bbc6000f3fe608060405234801561001057600080fd5b506004361061009e5760003560e01c8063c2fb26a611610066578063c2fb26a614610135578063d082fe1714610153578063d35295d514610171578063f2fde38b1461018d578063fc0c546a146101a95761009e565b8063471a6bdd146100a357806354fd4d50146100d35780636c19e783146100f1578063715018a61461010d5780638da5cb5b14610117575b600080fd5b6100bd60048036038101906100b89190611127565b6101c7565b6040516100ca9190611554565b60405180910390f35b6100db6101fd565b6040516100e891906115ff565b60405180910390f35b61010b60048036038101906101069190611042565b61028b565b005b61011561038e565b005b61011f610416565b60405161012c91906114e0565b60405180910390f35b61013d610440565b60405161014a91906115ff565b60405180910390f35b61015b6104ce565b60405161016891906114e0565b60405180910390f35b61018b6004803603810190610186919061106b565b6104f4565b005b6101a760048036038101906101a29190611042565b6108f9565b005b6101b16109f1565b6040516101be91906115e4565b60405180910390f35b6005818051602081018201805184825260208301602085012081835280955050505050506000915054906101000a900460ff1681565b6004805461020a90611910565b80601f016020809104026020016040519081016040528092919081815260200182805461023690611910565b80156102835780601f1061025857610100808354040283529160200191610283565b820191906000526020600020905b81548152906001019060200180831161026657829003601f168201915b505050505081565b610293610a15565b73ffffffffffffffffffffffffffffffffffffffff166102b1610416565b73ffffffffffffffffffffffffffffffffffffffff1614610307576040517f08c379a00000000000000000000000000000000000000000000000000000000081526004016102fe90611681565b60405180910390fd5b80600260006101000a81548173ffffffffffffffffffffffffffffffffffffffff021916908373ffffffffffffffffffffffffffffffffffffffff1602179055508073ffffffffffffffffffffffffffffffffffffffff167fbb10aee7ef5a307b8097c6a7f2892b909ff1736fd24a6a5260640c185f7153b660405160405180910390a250565b610396610a15565b73ffffffffffffffffffffffffffffffffffffffff166103b4610416565b73ffffffffffffffffffffffffffffffffffffffff161461040a576040517f08c379a000000000000000000000000000000000000000000000000000000000815260040161040190611681565b60405180910390fd5b6104146000610a1d565b565b6000600160009054906101000a900473ffffffffffffffffffffffffffffffffffffffff16905090565b6003805461044d90611910565b80601f016020809104026020016040519081016040528092919081815260200182805461047990611910565b80156104c65780601f1061049b576101008083540402835291602001916104c6565b820191906000526020600020905b8154815290600101906020018083116104a957829003601f168201915b505050505081565b600260009054906101000a900473ffffffffffffffffffffffffffffffffffffffff1681565b6002600054141561053a576040517f08c379a0000000000000000000000000000000000000000000000000000000008152600401610531906116a1565b60405180910390fd5b60026000819055508383838360006040518060a001604052808673ffffffffffffffffffffffffffffffffffffffff1681526020018581526020018481526020016003805461058890611910565b80601f01602080910402602001604051908101604052809291908181526020018280546105b490611910565b80156106015780601f106105d657610100808354040283529160200191610601565b820191906000526020600020905b8154815290600101906020018083116105e457829003601f168201915b505050505081526020016004805461061890611910565b80601f016020809104026020016040519081016040528092919081815260200182805461064490611910565b80156106915780601f1061066657610100808354040283529160200191610691565b820191906000526020600020905b81548152906001019060200180831161067457829003601f168201915b50505050508152506040516020016106a991906116c1565b604051602081830303815290604052805190602001209050600115156106fa600260009054906101000a900473ffffffffffffffffffffffffffffffffffffffff166106f484610ae3565b85610b13565b15151461073c576040517f08c379a000000000000000000000000000000000000000000000000000000000815260040161073390611661565b60405180910390fd5b600015156005886040516107509190611488565b908152602001604051809103902060009054906101000a900460ff161515146107ae576040517f08c379a00000000000000000000000000000000000000000000000000000000081526004016107a590611641565b60405180910390fd5b60016005886040516107c09190611488565b908152602001604051809103902060006101000a81548160ff0219169083151502179055506000886040516020016107f891906114c5565b60405160208183030381529060405290507f000000000000000000000000000000000000000000000000000000000000000073ffffffffffffffffffffffffffffffffffffffff1663cf2c52cb8b836040518363ffffffff1660e01b81526004016108649291906114fb565b600060405180830381600087803b15801561087e57600080fd5b505af1158015610892573d6000803e3d6000fd5b50505050876040516108a49190611488565b60405180910390207f643e927b32d5bfd08eccd2fcbd97057ad413850f857a2359639114e8e8dd3d7b8b8b6040516108dd92919061152b565b60405180910390a2505050505050600160008190555050505050565b610901610a15565b73ffffffffffffffffffffffffffffffffffffffff1661091f610416565b73ffffffffffffffffffffffffffffffffffffffff1614610975576040517f08c379a000000000000000000000000000000000000000000000000000000000815260040161096c90611681565b60405180910390fd5b600073ffffffffffffffffffffffffffffffffffffffff168173ffffffffffffffffffffffffffffffffffffffff1614156109e5576040517f08c379a00000000000000000000000000000000000000000000000000000000081526004016109dc90611621565b60405180910390fd5b6109ee81610a1d565b50565b7f000000000000000000000000000000000000000000000000000000000000000081565b600033905090565b6000600160009054906101000a900473ffffffffffffffffffffffffffffffffffffffff16905081600160006101000a81548173ffffffffffffffffffffffffffffffffffffffff021916908373ffffffffffffffffffffffffffffffffffffffff1602179055508173ffffffffffffffffffffffffffffffffffffffff168173ffffffffffffffffffffffffffffffffffffffff167f8be0079c531659141344cd1fd0a4f28419497f9722a3daafe3b4186f6b6457e060405160405180910390a35050565b600081604051602001610af6919061149f565b604051602081830303815290604052805190602001209050919050565b6000806000610b228585610d44565b9150915060006004811115610b60577f4e487b7100000000000000000000000000000000000000000000000000000000600052602160045260246000fd5b816004811115610b99577f4e487b7100000000000000000000000000000000000000000000000000000000600052602160045260246000fd5b148015610bd157508573ffffffffffffffffffffffffffffffffffffffff168273ffffffffffffffffffffffffffffffffffffffff16145b15610be157600192505050610d3d565b6000808773ffffffffffffffffffffffffffffffffffffffff16631626ba7e60e01b8888604051602401610c1692919061156f565b604051602081830303815290604052907bffffffffffffffffffffffffffffffffffffffffffffffffffffffff19166020820180517bffffffffffffffffffffffffffffffffffffffffffffffffffffffff8381831617835250505050604051610c809190611471565b600060405180830381855afa9150503d8060008114610cbb576040519150601f19603f3d011682016040523d82523d6000602084013e610cc0565b606091505b5091509150818015610cd3575060208151145b8015610d365750631626ba7e60e01b7bffffffffffffffffffffffffffffffffffffffffffffffffffffffff191681806020019051810190610d1591906110fe565b7bffffffffffffffffffffffffffffffffffffffffffffffffffffffff1916145b9450505050505b9392505050565b600080604183511415610d865760008060006020860151925060408601519150606086015160001a9050610d7a87828585610dc7565b94509450505050610dc0565b604083511415610db7576000806020850151915060408501519050610dac868383610ed4565b935093505050610dc0565b60006002915091505b9250929050565b6000807f7fffffffffffffffffffffffffffffff5d576e7357a4501ddfe92f46681b20a08360001c1115610e02576000600391509150610ecb565b601b8560ff1614158015610e1a5750601c8560ff1614155b15610e2c576000600491509150610ecb565b600060018787878760405160008152602001604052604051610e51949392919061159f565b6020604051602081039080840390855afa158015610e73573d6000803e3d6000fd5b505050602060405103519050600073ffffffffffffffffffffffffffffffffffffffff168173ffffffffffffffffffffffffffffffffffffffff161415610ec257600060019250925050610ecb565b80600092509250505b94509492505050565b60008060007f7fffffffffffffffffffffffffffffffffffffffffffffffffffffffffffffff60001b841690506000601b60ff8660001c901c610f1791906117c9565b9050610f2587828885610dc7565b935093505050935093915050565b6000610f46610f4184611708565b6116e3565b905082815260208101848484011115610f5e57600080fd5b610f698482856118ce565b509392505050565b6000610f84610f7f84611739565b6116e3565b905082815260208101848484011115610f9c57600080fd5b610fa78482856118ce565b509392505050565b600081359050610fbe81611b41565b92915050565b600081519050610fd381611b58565b92915050565b600082601f830112610fea57600080fd5b8135610ffa848260208601610f33565b91505092915050565b600082601f83011261101457600080fd5b8135611024848260208601610f71565b91505092915050565b60008135905061103c81611b6f565b92915050565b60006020828403121561105457600080fd5b600061106284828501610faf565b91505092915050565b6000806000806080858703121561108157600080fd5b600061108f87828801610faf565b94505060206110a08782880161102d565b935050604085013567ffffffffffffffff8111156110bd57600080fd5b6110c987828801611003565b925050606085013567ffffffffffffffff8111156110e657600080fd5b6110f287828801610fd9565b91505092959194509250565b60006020828403121561111057600080fd5b600061111e84828501610fc4565b91505092915050565b60006020828403121561113957600080fd5b600082013567ffffffffffffffff81111561115357600080fd5b61115f84828501611003565b91505092915050565b6111718161181f565b82525050565b6111808161181f565b82525050565b61118f81611831565b82525050565b61119e8161183d565b82525050565b6111b56111b08261183d565b611973565b82525050565b60006111c68261176a565b6111d08185611780565b93506111e08185602086016118dd565b6111e981611a14565b840191505092915050565b60006111ff8261176a565b6112098185611791565b93506112198185602086016118dd565b80840191505092915050565b61122e816118aa565b82525050565b600061123f82611775565b611249818561179c565b93506112598185602086016118dd565b61126281611a14565b840191505092915050565b600061127882611775565b61128281856117ad565b93506112928185602086016118dd565b61129b81611a14565b840191505092915050565b60006112b182611775565b6112bb81856117be565b93506112cb8185602086016118dd565b80840191505092915050565b60006112e4601c836117be565b91506112ef82611a25565b601c82019050919050565b60006113076026836117ad565b915061131282611a4e565b604082019050919050565b600061132a6013836117ad565b915061133582611a9d565b602082019050919050565b600061134d6011836117ad565b915061135882611ac6565b602082019050919050565b60006113706020836117ad565b915061137b82611aef565b602082019050919050565b6000611393601f836117ad565b915061139e82611b18565b602082019050919050565b600060a0830160008301516113c16000860182611168565b5060208301516113d4602086018261142d565b50604083015184820360408601526113ec8282611234565b915050606083015184820360608601526114068282611234565b915050608083015184820360808601526114208282611234565b9150508091505092915050565b61143681611893565b82525050565b61144581611893565b82525050565b61145c61145782611893565b61197d565b82525050565b61146b8161189d565b82525050565b600061147d82846111f4565b915081905092915050565b600061149482846112a6565b915081905092915050565b60006114aa826112d7565b91506114b682846111a4565b60208201915081905092915050565b60006114d1828461144b565b60208201915081905092915050565b60006020820190506114f56000830184611177565b92915050565b60006040820190506115106000830185611177565b818103602083015261152281846111bb565b90509392505050565b60006040820190506115406000830185611177565b61154d602083018461143c565b9392505050565b60006020820190506115696000830184611186565b92915050565b60006040820190506115846000830185611195565b818103602083015261159681846111bb565b90509392505050565b60006080820190506115b46000830187611195565b6115c16020830186611462565b6115ce6040830185611195565b6115db6060830184611195565b95945050505050565b60006020820190506115f96000830184611225565b92915050565b60006020820190508181036000830152611619818461126d565b905092915050565b6000602082019050818103600083015261163a816112fa565b9050919050565b6000602082019050818103600083015261165a8161131d565b9050919050565b6000602082019050818103600083015261167a81611340565b9050919050565b6000602082019050818103600083015261169a81611363565b9050919050565b600060208201905081810360008301526116ba81611386565b9050919050565b600060208201905081810360008301526116db81846113a9565b905092915050565b60006116ed6116fe565b90506116f98282611942565b919050565b6000604051905090565b600067ffffffffffffffff821115611723576117226119e5565b5b61172c82611a14565b9050602081019050919050565b600067ffffffffffffffff821115611754576117536119e5565b5b61175d82611a14565b9050602081019050919050565b600081519050919050565b600081519050919050565b600082825260208201905092915050565b600081905092915050565b600082825260208201905092915050565b600082825260208201905092915050565b600081905092915050565b60006117d482611893565b91506117df83611893565b9250827fffffffffffffffffffffffffffffffffffffffffffffffffffffffffffffffff0382111561181457611813611987565b5b828201905092915050565b600061182a82611873565b9050919050565b60008115159050919050565b6000819050919050565b60007fffffffff0000000000000000000000000000000000000000000000000000000082169050919050565b600073ffffffffffffffffffffffffffffffffffffffff82169050919050565b6000819050919050565b600060ff82169050919050565b60006118b5826118bc565b9050919050565b60006118c782611873565b9050919050565b82818337600083830152505050565b60005b838110156118fb5780820151818401526020810190506118e0565b8381111561190a576000848401525b50505050565b6000600282049050600182168061192857607f821691505b6020821081141561193c5761193b6119b6565b5b50919050565b61194b82611a14565b810181811067ffffffffffffffff8211171561196a576119696119e5565b5b80604052505050565b6000819050919050565b6000819050919050565b7f4e487b7100000000000000000000000000000000000000000000000000000000600052601160045260246000fd5b7f4e487b7100000000000000000000000000000000000000000000000000000000600052602260045260246000fd5b7f4e487b7100000000000000000000000000000000000000000000000000000000600052604160045260246000fd5b6000601f19601f8301169050919050565b7f19457468657265756d205369676e6564204d6573736167653a0a333200000000600082015250565b7f4f776e61626c653a206e6577206f776e657220697320746865207a65726f206160008201527f6464726573730000000000000000000000000000000000000000000000000000602082015250565b7f496e76616c6964205472616e73616374696f6e00000000000000000000000000600082015250565b7f496e76616c6964207369676e6174757265000000000000000000000000000000600082015250565b7f4f776e61626c653a2063616c6c6572206973206e6f7420746865206f776e6572600082015250565b7f5265656e7472616e637947756172643a207265656e7472616e742063616c6c00600082015250565b611b4a8161181f565b8114611b5557600080fd5b50565b611b6181611847565b8114611b6c57600080fd5b50565b611b7881611893565b8114611b8357600080fd5b5056fea2646970667358221220bdc90dea840910b1e9fdc8a0f4a3c19d7b456aa5bd02f2e7f5a7689237fa84c164736f6c63430008020033",
  "devdoc": {
    "kind": "dev",
    "methods": {
      "owner()": {
        "details": "Returns the address of the current owner."
      },
      "renounceOwnership()": {
        "details": "Leaves the contract without owner. It will not be possible to call `onlyOwner` functions anymore. Can only be called by the current owner. NOTE: Renouncing ownership will leave the contract without an owner, thereby removing any functionality that is only available to the owner."
      },
      "transferOwnership(address)": {
        "details": "Transfers ownership of the contract to a new account (`newOwner`). Can only be called by the current owner."
      }
    },
    "version": 1
  },
  "userdoc": {
    "kind": "user",
    "methods": {},
    "version": 1
  },
  "storageLayout": {
    "storage": [
      {
        "astId": 221,
        "contract": "contracts/bridge/PolyDeposit.sol:PolyDeposit",
        "label": "_status",
        "offset": 0,
        "slot": "0",
        "type": "t_uint256"
      },
      {
        "astId": 7,
        "contract": "contracts/bridge/PolyDeposit.sol:PolyDeposit",
        "label": "_owner",
        "offset": 0,
        "slot": "1",
        "type": "t_address"
      },
      {
        "astId": 2410,
        "contract": "contracts/bridge/PolyDeposit.sol:PolyDeposit",
        "label": "approvedSigner",
        "offset": 0,
        "slot": "2",
        "type": "t_address"
      },
      {
        "astId": 2412,
        "contract": "contracts/bridge/PolyDeposit.sol:PolyDeposit",
        "label": "domain",
        "offset": 0,
        "slot": "3",
        "type": "t_string_storage"
      },
      {
        "astId": 2414,
        "contract": "contracts/bridge/PolyDeposit.sol:PolyDeposit",
        "label": "version",
        "offset": 0,
        "slot": "4",
        "type": "t_string_storage"
      },
      {
        "astId": 2320,
        "contract": "contracts/bridge/PolyDeposit.sol:PolyDeposit",
        "label": "lockTxnHashes",
        "offset": 0,
        "slot": "5",
        "type": "t_mapping(t_string_memory_ptr,t_bool)"
      }
    ],
    "types": {
      "t_address": {
        "encoding": "inplace",
        "label": "address",
        "numberOfBytes": "20"
      },
      "t_bool": {
        "encoding": "inplace",
        "label": "bool",
        "numberOfBytes": "1"
      },
      "t_mapping(t_string_memory_ptr,t_bool)": {
        "encoding": "mapping",
        "key": "t_string_memory_ptr",
        "label": "mapping(string => bool)",
        "numberOfBytes": "32",
        "value": "t_bool"
      },
      "t_string_memory_ptr": {
        "encoding": "bytes",
        "label": "string",
        "numberOfBytes": "32"
      },
      "t_string_storage": {
        "encoding": "bytes",
        "label": "string",
        "numberOfBytes": "32"
      },
      "t_uint256": {
        "encoding": "inplace",
        "label": "uint256",
        "numberOfBytes": "32"
      }
    }
  }
}