{
  "address": "0x7C33BC219Dc66A1BC094c15a0F6db6458Dc61F34",
  "abi": [
    {
      "inputs": [
        {
          "internalType": "address",
          "name": "_depositAdmin",
          "type": "address"
        }
      ],
      "stateMutability": "nonpayable",
      "type": "constructor"
    },
    {
      "anonymous": false,
      "inputs": [
        {
          "indexed": true,
          "internalType": "address",
          "name": "owner",
          "type": "address"
        },
        {
          "indexed": true,
          "internalType": "address",
          "name": "spender",
          "type": "address"
        },
        {
          "indexed": false,
          "internalType": "uint256",
          "name": "value",
          "type": "uint256"
        }
      ],
      "name": "Approval",
      "type": "event"
    },
    {
      "anonymous": false,
      "inputs": [
        {
          "indexed": false,
          "internalType": "address",
          "name": "admin",
          "type": "address"
        }
      ],
      "name": "DepositAdminChanged",
      "type": "event"
    },
    {
      "anonymous": false,
      "inputs": [
        {
          "indexed": true,
          "internalType": "address",
          "name": "previousOwner",
          "type": "address"
        },
        {
          "indexed": true,
          "internalType": "address",
          "name": "newOwner",
          "type": "address"
        }
      ],
      "name": "OwnershipTransferred",
      "type": "event"
    },
    {
      "anonymous": false,
      "inputs": [
        {
          "indexed": false,
          "internalType": "address",
          "name": "account",
          "type": "address"
        }
      ],
      "name": "Paused",
      "type": "event"
    },
    {
      "anonymous": false,
      "inputs": [
        {
          "indexed": true,
          "internalType": "address",
          "name": "from",
          "type": "address"
        },
        {
          "indexed": true,
          "internalType": "address",
          "name": "to",
          "type": "address"
        },
        {
          "indexed": false,
          "internalType": "uint256",
          "name": "value",
          "type": "uint256"
        }
      ],
      "name": "Transfer",
      "type": "event"
    },
    {
      "anonymous": false,
      "inputs": [
        {
          "indexed": false,
          "internalType": "address",
          "name": "account",
          "type": "address"
        }
      ],
      "name": "Unpaused",
      "type": "event"
    },
    {
      "inputs": [
        {
          "internalType": "address",
          "name": "owner",
          "type": "address"
        },
        {
          "internalType": "address",
          "name": "spender",
          "type": "address"
        }
      ],
      "name": "allowance",
      "outputs": [
        {
          "internalType": "uint256",
          "name": "",
          "type": "uint256"
        }
      ],
      "stateMutability": "view",
      "type": "function"
    },
    {
      "inputs": [
        {
          "internalType": "address",
          "name": "spender",
          "type": "address"
        },
        {
          "internalType": "uint256",
          "name": "amount",
          "type": "uint256"
        }
      ],
      "name": "approve",
      "outputs": [
        {
          "internalType": "bool",
          "name": "",
          "type": "bool"
        }
      ],
      "stateMutability": "nonpayable",
      "type": "function"
    },
    {
      "inputs": [
        {
          "internalType": "address",
          "name": "account",
          "type": "address"
        }
      ],
      "name": "balanceOf",
      "outputs": [
        {
          "internalType": "uint256",
          "name": "",
          "type": "uint256"
        }
      ],
      "stateMutability": "view",
      "type": "function"
    },
    {
      "inputs": [
        {
          "internalType": "uint256",
          "name": "amount",
          "type": "uint256"
        }
      ],
      "name": "burn",
      "outputs": [],
      "stateMutability": "nonpayable",
      "type": "function"
    },
    {
      "inputs": [],
      "name": "decimals",
      "outputs": [
        {
          "internalType": "uint8",
          "name": "",
          "type": "uint8"
        }
      ],
      "stateMutability": "view",
      "type": "function"
    },
    {
      "inputs": [
        {
          "internalType": "address",
          "name": "spender",
          "type": "address"
        },
        {
          "internalType": "uint256",
          "name": "subtractedValue",
          "type": "uint256"
        }
      ],
      "name": "decreaseAllowance",
      "outputs": [
        {
          "internalType": "bool",
          "name": "",
          "type": "bool"
        }
      ],
      "stateMutability": "nonpayable",
      "type": "function"
    },
    {
      "inputs": [
        {
          "internalType": "address",
          "name": "user",
          "type": "address"
        },
        {
          "internalType": "bytes",
          "name": "depositData",
          "type": "bytes"
        }
      ],
      "name": "deposit",
      "outputs": [],
      "stateMutability": "nonpayable",
      "type": "function"
    },
    {
      "inputs": [],
      "name": "getDepositAdmin",
      "outputs": [
        {
          "internalType": "address",
          "name": "",
          "type": "address"
        }
      ],
      "stateMutability": "view",
      "type": "function"
    },
    {
      "inputs": [
        {
          "internalType": "address",
          "name": "spender",
          "type": "address"
        },
        {
          "internalType": "uint256",
          "name": "addedValue",
          "type": "uint256"
        }
      ],
      "name": "increaseAllowance",
      "outputs": [
        {
          "internalType": "bool",
          "name": "",
          "type": "bool"
        }
      ],
      "stateMutability": "nonpayable",
      "type": "function"
    },
    {
      "inputs": [],
      "name": "name",
      "outputs": [
        {
          "internalType": "string",
          "name": "",
          "type": "string"
        }
      ],
      "stateMutability": "view",
      "type": "function"
    },
    {
      "inputs": [],
      "name": "owner",
      "outputs": [
        {
          "internalType": "address",
          "name": "",
          "type": "address"
        }
      ],
      "stateMutability": "view",
      "type": "function"
    },
    {
      "inputs": [],
      "name": "pause",
      "outputs": [],
      "stateMutability": "nonpayable",
      "type": "function"
    },
    {
      "inputs": [],
      "name": "paused",
      "outputs": [
        {
          "internalType": "bool",
          "name": "",
          "type": "bool"
        }
      ],
      "stateMutability": "view",
      "type": "function"
    },
    {
      "inputs": [],
      "name": "renounceOwnership",
      "outputs": [],
      "stateMutability": "nonpayable",
      "type": "function"
    },
    {
      "inputs": [
        {
          "internalType": "address",
          "name": "depositAdmin",
          "type": "address"
        }
      ],
      "name": "setDepositAdmin",
      "outputs": [],
      "stateMutability": "nonpayable",
      "type": "function"
    },
    {
      "inputs": [],
      "name": "symbol",
      "outputs": [
        {
          "internalType": "string",
          "name": "",
          "type": "string"
        }
      ],
      "stateMutability": "view",
      "type": "function"
    },
    {
      "inputs": [],
      "name": "totalSupply",
      "outputs": [
        {
          "internalType": "uint256",
          "name": "",
          "type": "uint256"
        }
      ],
      "stateMutability": "view",
      "type": "function"
    },
    {
      "inputs": [
        {
          "internalType": "address",
          "name": "to",
          "type": "address"
        },
        {
          "internalType": "uint256",
          "name": "amount",
          "type": "uint256"
        }
      ],
      "name": "transfer",
      "outputs": [
        {
          "internalType": "bool",
          "name": "",
          "type": "bool"
        }
      ],
      "stateMutability": "nonpayable",
      "type": "function"
    },
    {
      "inputs": [
        {
          "internalType": "address",
          "name": "from",
          "type": "address"
        },
        {
          "internalType": "address",
          "name": "to",
          "type": "address"
        },
        {
          "internalType": "uint256",
          "name": "amount",
          "type": "uint256"
        }
      ],
      "name": "transferFrom",
      "outputs": [
        {
          "internalType": "bool",
          "name": "",
          "type": "bool"
        }
      ],
      "stateMutability": "nonpayable",
      "type": "function"
    },
    {
      "inputs": [
        {
          "internalType": "address",
          "name": "newOwner",
          "type": "address"
        }
      ],
      "name": "transferOwnership",
      "outputs": [],
      "stateMutability": "nonpayable",
      "type": "function"
    },
    {
      "inputs": [],
      "name": "unpause",
      "outputs": [],
      "stateMutability": "nonpayable",
      "type": "function"
    }
  ],
  "transactionHash": "0x4a3848797ffd61fc0942a40b67f106b61253fa72228cafe9a7c16417eb5b8411",
  "args": [
    "0x188E2e21503540CfFBD4F8e94B8E338Cd9433A1A"
  ],
  "numDeployments": 1,
  "solcInputHash": "91bb5b75d893900f36f558b2d8ee6952",
  "bytecode": "0x60806040523480156200001157600080fd5b50604051620029bf380380620029bf8339818101604052810190620000379190620003f5565b6040518060400160405280600981526020017f44756f20546f6b656e00000000000000000000000000000000000000000000008152506040518060400160405280600381526020017f44554f00000000000000000000000000000000000000000000000000000000008152508160039080519060200190620000bb9291906200032e565b508060049080519060200190620000d49291906200032e565b505050620000f7620000eb6200012a60201b60201c565b6200013260201b60201c565b6000600560146101000a81548160ff0219169083151502179055506200012381620001f860201b60201c565b5062000585565b600033905090565b6000600560009054906101000a900473ffffffffffffffffffffffffffffffffffffffff16905081600560006101000a81548173ffffffffffffffffffffffffffffffffffffffff021916908373ffffffffffffffffffffffffffffffffffffffff1602179055508173ffffffffffffffffffffffffffffffffffffffff168173ffffffffffffffffffffffffffffffffffffffff167f8be0079c531659141344cd1fd0a4f28419497f9722a3daafe3b4186f6b6457e060405160405180910390a35050565b620002086200012a60201b60201c565b73ffffffffffffffffffffffffffffffffffffffff166200022e6200030460201b60201c565b73ffffffffffffffffffffffffffffffffffffffff161462000287576040517f08c379a00000000000000000000000000000000000000000000000000000000081526004016200027e9062000476565b60405180910390fd5b80600660006101000a81548173ffffffffffffffffffffffffffffffffffffffff021916908373ffffffffffffffffffffffffffffffffffffffff1602179055507f73c5d936cc227477833d97907987db5bf2e4632345df3e927933ff918b6e83c181604051620002f9919062000459565b60405180910390a150565b6000600560009054906101000a900473ffffffffffffffffffffffffffffffffffffffff16905090565b8280546200033c90620004dd565b90600052602060002090601f016020900481019282620003605760008555620003ac565b82601f106200037b57805160ff1916838001178555620003ac565b82800160010185558215620003ac579182015b82811115620003ab5782518255916020019190600101906200038e565b5b509050620003bb9190620003bf565b5090565b5b80821115620003da576000816000905550600101620003c0565b5090565b600081519050620003ef816200056b565b92915050565b6000602082840312156200040857600080fd5b60006200041884828501620003de565b91505092915050565b6200042c81620004a9565b82525050565b60006200044160208362000498565b91506200044e8262000542565b602082019050919050565b600060208201905062000470600083018462000421565b92915050565b60006020820190508181036000830152620004918162000432565b9050919050565b600082825260208201905092915050565b6000620004b682620004bd565b9050919050565b600073ffffffffffffffffffffffffffffffffffffffff82169050919050565b60006002820490506001821680620004f657607f821691505b602082108114156200050d576200050c62000513565b5b50919050565b7f4e487b7100000000000000000000000000000000000000000000000000000000600052602260045260246000fd5b7f4f776e61626c653a2063616c6c6572206973206e6f7420746865206f776e6572600082015250565b6200057681620004a9565b81146200058257600080fd5b50565b61242a80620005956000396000f3fe608060405234801561001057600080fd5b50600436106101375760003560e01c806370a08231116100b8578063a2ad67a41161007c578063a2ad67a414610308578063a457c2d714610324578063a9059cbb14610354578063cf2c52cb14610384578063dd62ed3e146103a0578063f2fde38b146103d057610137565b806370a0823114610288578063715018a6146102b85780638456cb59146102c25780638da5cb5b146102cc57806395d89b41146102ea57610137565b806339509351116100ff57806339509351146101f65780633f4ba83a1461022657806342966c68146102305780635c975abb1461024c57806361e693ae1461026a57610137565b806306fdde031461013c578063095ea7b31461015a57806318160ddd1461018a57806323b872dd146101a8578063313ce567146101d8575b600080fd5b6101446103ec565b6040516101519190611c02565b60405180910390f35b610174600480360381019061016f91906118e5565b61047e565b6040516101819190611be7565b60405180910390f35b6101926104a1565b60405161019f9190611e04565b60405180910390f35b6101c260048036038101906101bd919061183e565b6104ab565b6040516101cf9190611be7565b60405180910390f35b6101e06104da565b6040516101ed9190611e1f565b60405180910390f35b610210600480360381019061020b91906118e5565b6104e3565b60405161021d9190611be7565b60405180910390f35b61022e61058d565b005b61024a60048036038101906102459190611921565b610613565b005b610254610668565b6040516102619190611be7565b60405180910390f35b61027261067f565b60405161027f9190611bcc565b60405180910390f35b6102a2600480360381019061029d91906117d9565b6106a9565b6040516102af9190611e04565b60405180910390f35b6102c06106f1565b005b6102ca610779565b005b6102d46107ff565b6040516102e19190611bcc565b60405180910390f35b6102f2610829565b6040516102ff9190611c02565b60405180910390f35b610322600480360381019061031d91906117d9565b6108bb565b005b61033e600480360381019061033991906118e5565b6109b2565b60405161034b9190611be7565b60405180910390f35b61036e600480360381019061036991906118e5565b610a9c565b60405161037b9190611be7565b60405180910390f35b61039e6004803603810190610399919061188d565b610abf565b005b6103ba60048036038101906103b59190611802565b610bba565b6040516103c79190611e04565b60405180910390f35b6103ea60048036038101906103e591906117d9565b610c41565b005b6060600380546103fb90611f68565b80601f016020809104026020016040519081016040528092919081815260200182805461042790611f68565b80156104745780601f1061044957610100808354040283529160200191610474565b820191906000526020600020905b81548152906001019060200180831161045757829003601f168201915b5050505050905090565b600080610489610d39565b9050610496818585610d41565b600191505092915050565b6000600254905090565b6000806104b6610d39565b90506104c3858285610f0c565b6104ce858585610f98565b60019150509392505050565b60006012905090565b6000806104ee610d39565b9050610582818585600160008673ffffffffffffffffffffffffffffffffffffffff1673ffffffffffffffffffffffffffffffffffffffff16815260200190815260200160002060008973ffffffffffffffffffffffffffffffffffffffff1673ffffffffffffffffffffffffffffffffffffffff1681526020019081526020016000205461057d9190611e56565b610d41565b600191505092915050565b610595610d39565b73ffffffffffffffffffffffffffffffffffffffff166105b36107ff565b73ffffffffffffffffffffffffffffffffffffffff1614610609576040517f08c379a000000000000000000000000000000000000000000000000000000000815260040161060090611d24565b60405180910390fd5b610611611219565b565b61061b610668565b1561065b576040517f08c379a000000000000000000000000000000000000000000000000000000000815260040161065290611d04565b60405180910390fd5b61066533826112bb565b50565b6000600560149054906101000a900460ff16905090565b6000600660009054906101000a900473ffffffffffffffffffffffffffffffffffffffff16905090565b60008060008373ffffffffffffffffffffffffffffffffffffffff1673ffffffffffffffffffffffffffffffffffffffff168152602001908152602001600020549050919050565b6106f9610d39565b73ffffffffffffffffffffffffffffffffffffffff166107176107ff565b73ffffffffffffffffffffffffffffffffffffffff161461076d576040517f08c379a000000000000000000000000000000000000000000000000000000000815260040161076490611d24565b60405180910390fd5b6107776000611492565b565b610781610d39565b73ffffffffffffffffffffffffffffffffffffffff1661079f6107ff565b73ffffffffffffffffffffffffffffffffffffffff16146107f5576040517f08c379a00000000000000000000000000000000000000000000000000000000081526004016107ec90611d24565b60405180910390fd5b6107fd611558565b565b6000600560009054906101000a900473ffffffffffffffffffffffffffffffffffffffff16905090565b60606004805461083890611f68565b80601f016020809104026020016040519081016040528092919081815260200182805461086490611f68565b80156108b15780601f10610886576101008083540402835291602001916108b1565b820191906000526020600020905b81548152906001019060200180831161089457829003601f168201915b5050505050905090565b6108c3610d39565b73ffffffffffffffffffffffffffffffffffffffff166108e16107ff565b73ffffffffffffffffffffffffffffffffffffffff1614610937576040517f08c379a000000000000000000000000000000000000000000000000000000000815260040161092e90611d24565b60405180910390fd5b80600660006101000a81548173ffffffffffffffffffffffffffffffffffffffff021916908373ffffffffffffffffffffffffffffffffffffffff1602179055507f73c5d936cc227477833d97907987db5bf2e4632345df3e927933ff918b6e83c1816040516109a79190611bcc565b60405180910390a150565b6000806109bd610d39565b90506000600160008373ffffffffffffffffffffffffffffffffffffffff1673ffffffffffffffffffffffffffffffffffffffff16815260200190815260200160002060008673ffffffffffffffffffffffffffffffffffffffff1673ffffffffffffffffffffffffffffffffffffffff16815260200190815260200160002054905083811015610a83576040517f08c379a0000000000000000000000000000000000000000000000000000000008152600401610a7a90611dc4565b60405180910390fd5b610a908286868403610d41565b60019250505092915050565b600080610aa7610d39565b9050610ab4818585610f98565b600191505092915050565b600660009054906101000a900473ffffffffffffffffffffffffffffffffffffffff1673ffffffffffffffffffffffffffffffffffffffff163373ffffffffffffffffffffffffffffffffffffffff1614610b4f576040517f08c379a0000000000000000000000000000000000000000000000000000000008152600401610b4690611da4565b60405180910390fd5b610b57610668565b15610b97576040517f08c379a0000000000000000000000000000000000000000000000000000000008152600401610b8e90611d04565b60405180910390fd5b60008282810190610ba89190611921565b9050610bb484826115fb565b50505050565b6000600160008473ffffffffffffffffffffffffffffffffffffffff1673ffffffffffffffffffffffffffffffffffffffff16815260200190815260200160002060008373ffffffffffffffffffffffffffffffffffffffff1673ffffffffffffffffffffffffffffffffffffffff16815260200190815260200160002054905092915050565b610c49610d39565b73ffffffffffffffffffffffffffffffffffffffff16610c676107ff565b73ffffffffffffffffffffffffffffffffffffffff1614610cbd576040517f08c379a0000000000000000000000000000000000000000000000000000000008152600401610cb490611d24565b60405180910390fd5b600073ffffffffffffffffffffffffffffffffffffffff168173ffffffffffffffffffffffffffffffffffffffff161415610d2d576040517f08c379a0000000000000000000000000000000000000000000000000000000008152600401610d2490611c84565b60405180910390fd5b610d3681611492565b50565b600033905090565b600073ffffffffffffffffffffffffffffffffffffffff168373ffffffffffffffffffffffffffffffffffffffff161415610db1576040517f08c379a0000000000000000000000000000000000000000000000000000000008152600401610da890611d84565b60405180910390fd5b600073ffffffffffffffffffffffffffffffffffffffff168273ffffffffffffffffffffffffffffffffffffffff161415610e21576040517f08c379a0000000000000000000000000000000000000000000000000000000008152600401610e1890611ca4565b60405180910390fd5b80600160008573ffffffffffffffffffffffffffffffffffffffff1673ffffffffffffffffffffffffffffffffffffffff16815260200190815260200160002060008473ffffffffffffffffffffffffffffffffffffffff1673ffffffffffffffffffffffffffffffffffffffff168152602001908152602001600020819055508173ffffffffffffffffffffffffffffffffffffffff168373ffffffffffffffffffffffffffffffffffffffff167f8c5be1e5ebec7d5bd14f71427d1e84f3dd0314c0f7b2291e5b200ac8c7c3b92583604051610eff9190611e04565b60405180910390a3505050565b6000610f188484610bba565b90507fffffffffffffffffffffffffffffffffffffffffffffffffffffffffffffffff8114610f925781811015610f84576040517f08c379a0000000000000000000000000000000000000000000000000000000008152600401610f7b90611cc4565b60405180910390fd5b610f918484848403610d41565b5b50505050565b600073ffffffffffffffffffffffffffffffffffffffff168373ffffffffffffffffffffffffffffffffffffffff161415611008576040517f08c379a0000000000000000000000000000000000000000000000000000000008152600401610fff90611d64565b60405180910390fd5b600073ffffffffffffffffffffffffffffffffffffffff168273ffffffffffffffffffffffffffffffffffffffff161415611078576040517f08c379a000000000000000000000000000000000000000000000000000000000815260040161106f90611c24565b60405180910390fd5b61108383838361175b565b60008060008573ffffffffffffffffffffffffffffffffffffffff1673ffffffffffffffffffffffffffffffffffffffff16815260200190815260200160002054905081811015611109576040517f08c379a000000000000000000000000000000000000000000000000000000000815260040161110090611ce4565b60405180910390fd5b8181036000808673ffffffffffffffffffffffffffffffffffffffff1673ffffffffffffffffffffffffffffffffffffffff16815260200190815260200160002081905550816000808573ffffffffffffffffffffffffffffffffffffffff1673ffffffffffffffffffffffffffffffffffffffff168152602001908152602001600020600082825461119c9190611e56565b925050819055508273ffffffffffffffffffffffffffffffffffffffff168473ffffffffffffffffffffffffffffffffffffffff167fddf252ad1be2c89b69c2b068fc378daa952ba7f163c4a11628f55a4df523b3ef846040516112009190611e04565b60405180910390a3611213848484611760565b50505050565b611221610668565b611260576040517f08c379a000000000000000000000000000000000000000000000000000000000815260040161125790611c44565b60405180910390fd5b6000600560146101000a81548160ff0219169083151502179055507f5db9ee0a495bf2e6ff9c91a7834c1ba4fdd244a5e8aa4e537bd38aeae4b073aa6112a4610d39565b6040516112b19190611bcc565b60405180910390a1565b600073ffffffffffffffffffffffffffffffffffffffff168273ffffffffffffffffffffffffffffffffffffffff16141561132b576040517f08c379a000000000000000000000000000000000000000000000000000000000815260040161132290611d44565b60405180910390fd5b6113378260008361175b565b60008060008473ffffffffffffffffffffffffffffffffffffffff1673ffffffffffffffffffffffffffffffffffffffff168152602001908152602001600020549050818110156113bd576040517f08c379a00000000000000000000000000000000000000000000000000000000081526004016113b490611c64565b60405180910390fd5b8181036000808573ffffffffffffffffffffffffffffffffffffffff1673ffffffffffffffffffffffffffffffffffffffff1681526020019081526020016000208190555081600260008282546114149190611eac565b92505081905550600073ffffffffffffffffffffffffffffffffffffffff168373ffffffffffffffffffffffffffffffffffffffff167fddf252ad1be2c89b69c2b068fc378daa952ba7f163c4a11628f55a4df523b3ef846040516114799190611e04565b60405180910390a361148d83600084611760565b505050565b6000600560009054906101000a900473ffffffffffffffffffffffffffffffffffffffff16905081600560006101000a81548173ffffffffffffffffffffffffffffffffffffffff021916908373ffffffffffffffffffffffffffffffffffffffff1602179055508173ffffffffffffffffffffffffffffffffffffffff168173ffffffffffffffffffffffffffffffffffffffff167f8be0079c531659141344cd1fd0a4f28419497f9722a3daafe3b4186f6b6457e060405160405180910390a35050565b611560610668565b156115a0576040517f08c379a000000000000000000000000000000000000000000000000000000000815260040161159790611d04565b60405180910390fd5b6001600560146101000a81548160ff0219169083151502179055507f62e78cea01bee320cd4e420270b5ea74000d11b0c9f74754ebdbfc544b05a2586115e4610d39565b6040516115f19190611bcc565b60405180910390a1565b600073ffffffffffffffffffffffffffffffffffffffff168273ffffffffffffffffffffffffffffffffffffffff16141561166b576040517f08c379a000000000000000000000000000000000000000000000000000000000815260040161166290611de4565b60405180910390fd5b6116776000838361175b565b80600260008282546116899190611e56565b92505081905550806000808473ffffffffffffffffffffffffffffffffffffffff1673ffffffffffffffffffffffffffffffffffffffff16815260200190815260200160002060008282546116de9190611e56565b925050819055508173ffffffffffffffffffffffffffffffffffffffff16600073ffffffffffffffffffffffffffffffffffffffff167fddf252ad1be2c89b69c2b068fc378daa952ba7f163c4a11628f55a4df523b3ef836040516117439190611e04565b60405180910390a361175760008383611760565b5050565b505050565b505050565b600081359050611774816123c6565b92915050565b60008083601f84011261178c57600080fd5b8235905067ffffffffffffffff8111156117a557600080fd5b6020830191508360018202830111156117bd57600080fd5b9250929050565b6000813590506117d3816123dd565b92915050565b6000602082840312156117eb57600080fd5b60006117f984828501611765565b91505092915050565b6000806040838503121561181557600080fd5b600061182385828601611765565b925050602061183485828601611765565b9150509250929050565b60008060006060848603121561185357600080fd5b600061186186828701611765565b935050602061187286828701611765565b9250506040611883868287016117c4565b9150509250925092565b6000806000604084860312156118a257600080fd5b60006118b086828701611765565b935050602084013567ffffffffffffffff8111156118cd57600080fd5b6118d98682870161177a565b92509250509250925092565b600080604083850312156118f857600080fd5b600061190685828601611765565b9250506020611917858286016117c4565b9150509250929050565b60006020828403121561193357600080fd5b6000611941848285016117c4565b91505092915050565b61195381611ee0565b82525050565b61196281611ef2565b82525050565b600061197382611e3a565b61197d8185611e45565b935061198d818560208601611f35565b61199681611ff8565b840191505092915050565b60006119ae602383611e45565b91506119b982612009565b604082019050919050565b60006119d1601483611e45565b91506119dc82612058565b602082019050919050565b60006119f4602283611e45565b91506119ff82612081565b604082019050919050565b6000611a17602683611e45565b9150611a22826120d0565b604082019050919050565b6000611a3a602283611e45565b9150611a458261211f565b604082019050919050565b6000611a5d601d83611e45565b9150611a688261216e565b602082019050919050565b6000611a80602683611e45565b9150611a8b82612197565b604082019050919050565b6000611aa3601083611e45565b9150611aae826121e6565b602082019050919050565b6000611ac6602083611e45565b9150611ad18261220f565b602082019050919050565b6000611ae9602183611e45565b9150611af482612238565b604082019050919050565b6000611b0c602583611e45565b9150611b1782612287565b604082019050919050565b6000611b2f602483611e45565b9150611b3a826122d6565b604082019050919050565b6000611b52602083611e45565b9150611b5d82612325565b602082019050919050565b6000611b75602583611e45565b9150611b808261234e565b604082019050919050565b6000611b98601f83611e45565b9150611ba38261239d565b602082019050919050565b611bb781611f1e565b82525050565b611bc681611f28565b82525050565b6000602082019050611be1600083018461194a565b92915050565b6000602082019050611bfc6000830184611959565b92915050565b60006020820190508181036000830152611c1c8184611968565b905092915050565b60006020820190508181036000830152611c3d816119a1565b9050919050565b60006020820190508181036000830152611c5d816119c4565b9050919050565b60006020820190508181036000830152611c7d816119e7565b9050919050565b60006020820190508181036000830152611c9d81611a0a565b9050919050565b60006020820190508181036000830152611cbd81611a2d565b9050919050565b60006020820190508181036000830152611cdd81611a50565b9050919050565b60006020820190508181036000830152611cfd81611a73565b9050919050565b60006020820190508181036000830152611d1d81611a96565b9050919050565b60006020820190508181036000830152611d3d81611ab9565b9050919050565b60006020820190508181036000830152611d5d81611adc565b9050919050565b60006020820190508181036000830152611d7d81611aff565b9050919050565b60006020820190508181036000830152611d9d81611b22565b9050919050565b60006020820190508181036000830152611dbd81611b45565b9050919050565b60006020820190508181036000830152611ddd81611b68565b9050919050565b60006020820190508181036000830152611dfd81611b8b565b9050919050565b6000602082019050611e196000830184611bae565b92915050565b6000602082019050611e346000830184611bbd565b92915050565b600081519050919050565b600082825260208201905092915050565b6000611e6182611f1e565b9150611e6c83611f1e565b9250827fffffffffffffffffffffffffffffffffffffffffffffffffffffffffffffffff03821115611ea157611ea0611f9a565b5b828201905092915050565b6000611eb782611f1e565b9150611ec283611f1e565b925082821015611ed557611ed4611f9a565b5b828203905092915050565b6000611eeb82611efe565b9050919050565b60008115159050919050565b600073ffffffffffffffffffffffffffffffffffffffff82169050919050565b6000819050919050565b600060ff82169050919050565b60005b83811015611f53578082015181840152602081019050611f38565b83811115611f62576000848401525b50505050565b60006002820490506001821680611f8057607f821691505b60208210811415611f9457611f93611fc9565b5b50919050565b7f4e487b7100000000000000000000000000000000000000000000000000000000600052601160045260246000fd5b7f4e487b7100000000000000000000000000000000000000000000000000000000600052602260045260246000fd5b6000601f19601f8301169050919050565b7f45524332303a207472616e7366657220746f20746865207a65726f206164647260008201527f6573730000000000000000000000000000000000000000000000000000000000602082015250565b7f5061757361626c653a206e6f7420706175736564000000000000000000000000600082015250565b7f45524332303a206275726e20616d6f756e7420657863656564732062616c616e60008201527f6365000000000000000000000000000000000000000000000000000000000000602082015250565b7f4f776e61626c653a206e6577206f776e657220697320746865207a65726f206160008201527f6464726573730000000000000000000000000000000000000000000000000000602082015250565b7f45524332303a20617070726f766520746f20746865207a65726f20616464726560008201527f7373000000000000000000000000000000000000000000000000000000000000602082015250565b7f45524332303a20696e73756666696369656e7420616c6c6f77616e6365000000600082015250565b7f45524332303a207472616e7366657220616d6f756e742065786365656473206260008201527f616c616e63650000000000000000000000000000000000000000000000000000602082015250565b7f5061757361626c653a2070617573656400000000000000000000000000000000600082015250565b7f4f776e61626c653a2063616c6c6572206973206e6f7420746865206f776e6572600082015250565b7f45524332303a206275726e2066726f6d20746865207a65726f2061646472657360008201527f7300000000000000000000000000000000000000000000000000000000000000602082015250565b7f45524332303a207472616e736665722066726f6d20746865207a65726f20616460008201527f6472657373000000000000000000000000000000000000000000000000000000602082015250565b7f45524332303a20617070726f76652066726f6d20746865207a65726f2061646460008201527f7265737300000000000000000000000000000000000000000000000000000000602082015250565b7f4465706f7369743a2063616c6c6572206973206e6f74207468652061646d696e600082015250565b7f45524332303a2064656372656173656420616c6c6f77616e63652062656c6f7760008201527f207a65726f000000000000000000000000000000000000000000000000000000602082015250565b7f45524332303a206d696e7420746f20746865207a65726f206164647265737300600082015250565b6123cf81611ee0565b81146123da57600080fd5b50565b6123e681611f1e565b81146123f157600080fd5b5056fea26469706673582212200116053a64b031f2ee603e2d58ab5c0a47b79a29d7fb2239257fd1a65f95652764736f6c63430008020033",
  "devdoc": {
    "kind": "dev",
    "methods": {
      "allowance(address,address)": {
        "details": "See {IERC20-allowance}."
      },
      "approve(address,uint256)": {
        "details": "See {IERC20-approve}. NOTE: If `amount` is the maximum `uint256`, the allowance is not updated on `transferFrom`. This is semantically equivalent to an infinite approval. Requirements: - `spender` cannot be the zero address."
      },
      "balanceOf(address)": {
        "details": "See {IERC20-balanceOf}."
      },
      "decimals()": {
        "details": "Returns the number of decimals used to get its user representation. For example, if `decimals` equals `2`, a balance of `505` tokens should be displayed to a user as `5.05` (`505 / 10 ** 2`). Tokens usually opt for a value of 18, imitating the relationship between Ether and Wei. This is the value {ERC20} uses, unless this function is overridden; NOTE: This information is only used for _display_ purposes: it in no way affects any of the arithmetic of the contract, including {IERC20-balanceOf} and {IERC20-transfer}."
      },
      "decreaseAllowance(address,uint256)": {
        "details": "Atomically decreases the allowance granted to `spender` by the caller. This is an alternative to {approve} that can be used as a mitigation for problems described in {IERC20-approve}. Emits an {Approval} event indicating the updated allowance. Requirements: - `spender` cannot be the zero address. - `spender` must have allowance for the caller of at least `subtractedValue`."
      },
      "increaseAllowance(address,uint256)": {
        "details": "Atomically increases the allowance granted to `spender` by the caller. This is an alternative to {approve} that can be used as a mitigation for problems described in {IERC20-approve}. Emits an {Approval} event indicating the updated allowance. Requirements: - `spender` cannot be the zero address."
      },
      "name()": {
        "details": "Returns the name of the token."
      },
      "owner()": {
        "details": "Returns the address of the current owner."
      },
      "paused()": {
        "details": "Returns true if the contract is paused, and false otherwise."
      },
      "renounceOwnership()": {
        "details": "Leaves the contract without owner. It will not be possible to call `onlyOwner` functions anymore. Can only be called by the current owner. NOTE: Renouncing ownership will leave the contract without an owner, thereby removing any functionality that is only available to the owner."
      },
      "symbol()": {
        "details": "Returns the symbol of the token, usually a shorter version of the name."
      },
      "totalSupply()": {
        "details": "See {IERC20-totalSupply}."
      },
      "transfer(address,uint256)": {
        "details": "See {IERC20-transfer}. Requirements: - `to` cannot be the zero address. - the caller must have a balance of at least `amount`."
      },
      "transferFrom(address,address,uint256)": {
        "details": "See {IERC20-transferFrom}. Emits an {Approval} event indicating the updated allowance. This is not required by the EIP. See the note at the beginning of {ERC20}. NOTE: Does not update the allowance if the current allowance is the maximum `uint256`. Requirements: - `from` and `to` cannot be the zero address. - `from` must have a balance of at least `amount`. - the caller must have allowance for ``from``'s tokens of at least `amount`."
      },
      "transferOwnership(address)": {
        "details": "Transfers ownership of the contract to a new account (`newOwner`). Can only be called by the current owner."
      }
    },
    "version": 1
  },
  "userdoc": {
    "kind": "user",
    "methods": {},
    "version": 1
  },
  "storageLayout": {
    "storage": [
      {
        "astId": 266,
        "contract": "contracts/token/PolyToken.sol:PolyToken",
        "label": "_balances",
        "offset": 0,
        "slot": "0",
        "type": "t_mapping(t_address,t_uint256)"
      },
      {
        "astId": 272,
        "contract": "contracts/token/PolyToken.sol:PolyToken",
        "label": "_allowances",
        "offset": 0,
        "slot": "1",
        "type": "t_mapping(t_address,t_mapping(t_address,t_uint256))"
      },
      {
        "astId": 274,
        "contract": "contracts/token/PolyToken.sol:PolyToken",
        "label": "_totalSupply",
        "offset": 0,
        "slot": "2",
        "type": "t_uint256"
      },
      {
        "astId": 276,
        "contract": "contracts/token/PolyToken.sol:PolyToken",
        "label": "_name",
        "offset": 0,
        "slot": "3",
        "type": "t_string_storage"
      },
      {
        "astId": 278,
        "contract": "contracts/token/PolyToken.sol:PolyToken",
        "label": "_symbol",
        "offset": 0,
        "slot": "4",
        "type": "t_string_storage"
      },
      {
        "astId": 7,
        "contract": "contracts/token/PolyToken.sol:PolyToken",
        "label": "_owner",
        "offset": 0,
        "slot": "5",
        "type": "t_address"
      },
      {
        "astId": 136,
        "contract": "contracts/token/PolyToken.sol:PolyToken",
        "label": "_paused",
        "offset": 20,
        "slot": "5",
        "type": "t_bool"
      },
      {
        "astId": 2637,
        "contract": "contracts/token/PolyToken.sol:PolyToken",
        "label": "_depositAdmin",
        "offset": 0,
        "slot": "6",
        "type": "t_address"
      }
    ],
    "types": {
      "t_address": {
        "encoding": "inplace",
        "label": "address",
        "numberOfBytes": "20"
      },
      "t_bool": {
        "encoding": "inplace",
        "label": "bool",
        "numberOfBytes": "1"
      },
      "t_mapping(t_address,t_mapping(t_address,t_uint256))": {
        "encoding": "mapping",
        "key": "t_address",
        "label": "mapping(address => mapping(address => uint256))",
        "numberOfBytes": "32",
        "value": "t_mapping(t_address,t_uint256)"
      },
      "t_mapping(t_address,t_uint256)": {
        "encoding": "mapping",
        "key": "t_address",
        "label": "mapping(address => uint256)",
        "numberOfBytes": "32",
        "value": "t_uint256"
      },
      "t_string_storage": {
        "encoding": "bytes",
        "label": "string",
        "numberOfBytes": "32"
      },
      "t_uint256": {
        "encoding": "inplace",
        "label": "uint256",
        "numberOfBytes": "32"
      }
    }
  }
}